:100000000C942A000C943F000C943F000C943F0089
:100010000C943F000C943F000C943F000C943F0064
:100020000C943F000C943F000C943F000C943F0054
:100030000C943F000C943F000C943F000C943F0044
:100040000C943F000C943F000C943F000C943F0034
:100050000C943F0011241FBECFE5D8E0DEBFCDBF1A
:1000600010E0A0E6B0E0E4E7F4E002C005900D92F5
:10007000AA3BB107D9F70E9487010C9438020C946F
:100080000000982F9770869586958695813021F18E
:1000900030F08230F1F1833009F458C008956111D5
:1000A0000EC04BB321E030E0B90102C0660F771FEC
:1000B0009A95E2F7CB01809584238BBB08954BB3CF
:1000C00021E030E0B90102C0660F771F9A95E2F790
:1000D000CB01842B8BBB089561110EC048B321E086
:1000E00030E0B90102C0660F771F9A95E2F7CB01A5
:1000F0008095842388BB089548B321E030E0B9019E
:1001000002C0660F771F9A95E2F7CB01842B88BB5C
:10011000089561110EC045B321E030E0B90102C07D
:10012000660F771F9A95E2F7CB018095842385BBF4
:10013000089545B321E030E0B90102C0660F771F92
:100140009A95E2F7CB01842B85BB089561110EC00F
:1001500042B321E030E0B90102C0660F771F9A95E3
:10016000E2F7CB018095842382BB089542B321E05E
:1001700030E0B90102C0660F771F9A95E2F7CB0114
:10018000842B82BB0895813041F028F0823039F011
:10019000833039F008956BBB089568BB089565BB43
:1001A000089562BB089561E08BE00E94410085E301
:1001B0008A95F1F7000060E08BE00E9441008FE338
:1001C0009FE10197F1F700C000000895CF93C82F79
:1001D0006BB36F70807F682B80E00E94C30060E08B
:1001E00089E00E94410060E08AE00E9441000E9494
:1001F000D3006BB36F7020E1C29FC0011124682B44
:1002000080E00E94C30060E089E00E94410060E05D
:100210008AE00E9441000E94D300CF91089560E0DF
:100220008AE00E9441002FEF89EF90E0215080404A
:100230009040E1F700C0000088E20E94E6008CE0F8
:100240000E94E60086E00E94E60081E00E94E6004F
:1002500080E80E94E600089581E00E94E6008FE3B6
:100260009FE10197F1F700C0000080E80E94E600DE
:100270000895CF93C82F6BB36F70807F682B80E099
:100280000E94C30061E089E00E94410060E08AE0D2
:100290000E9441000E94D3006BB36F7020E1C29FA7
:1002A000C0011124682B80E00E94C30061E089E056
:1002B0000E94410060E08AE00E9441000E94D30059
:1002C000CF910895CF93DF93EC018881882331F09B
:1002D00021960E94390189918111FBCFDF91CF9145
:1002E0000895CF93DF93EA01811106C0862F8F70A6
:1002F00080680E94E60005C0862F8F70806C0E9487
:10030000E600CE010E946201DF91CF9108950E9424
:10031000B9010E940F0180E690E00E9462012FEF78
:1003200083ED90E3215080409040E1F700C0000051
:100330000E942C0180E80E94E6008CE690E00E947A
:1003400062012FEF83ED90E3215080409040E1F770
:1003500000C0000043E750E065E080E00E947101CA
:1003600043E750E06DE081E00E94710180E090E0A1
:100370000895E9E7F0E080E041E050E0982F96959D
:1003800096959695382F377020812130A1F59130C0
:1003900089F028F09230C9F0933011F163C09AB31C
:1003A000BA0102C0660F771F3A95E2F79B01292B2D
:1003B0002ABB58C097B3BA0102C0660F771F3A959F
:1003C000E2F79B01292B27BB4DC094B3BA0102C0B1
:1003D000660F771F3A95E2F79B01292B24BB42C099
:1003E00091B3BA0102C0660F771F3A95E2F79B01FD
:1003F000292B21BB37C0913091F028F09230D9F0F1
:10040000933029F12FC02AB3BA0102C0660F771FBB
:100410003A95E2F7962F909592239ABB23C027B383
:10042000BA0102C0660F771F3A95E2F7962F9095B2
:10043000922397BB17C024B3BA0102C0660F771F7F
:100440003A95E2F7962F9095922394BB0BC021B377
:10045000BA0102C0660F771F3A95E2F7962F909582
:10046000922391BB8F5F3296803209F087CF089537
:04047000F894FFCF2E
:1004740048656C6C6F20576F726C640047726561DD
:10048400742E00484552452100010001000100017D
:100494000001000100010001000100010001000150
:1004A4000001000100010001000100010001000140
:1004B4000001000100010001000100010001000130
:0A04C400000100010001000100002A
:00000001FF
